:020000040800F2
:10000000C8180020E10100081F1400083112000880
:100010001D14000871020008F51800080000000017
:10002000000000000000000000000000490100087E
:1000300073020008000000008D010008D9140008B8
:10004000FB010008FB010008FB010008FB010008A0
:10005000FB010008FB010008A9020008FB010008E1
:10006000FB010008B7020008BD020008FB01000800
:10007000FB010008FB010008FB010008FB01000870
:10008000FB010008FB010008FB010008FB01000860
:10009000FB010008FB010008FB010008FB01000850
:1000A000FB010008FB010008FB010008FB01000840
:1000B000FB010008FB010008FB010008FB01000830
:1000C000FB010008FB010008FB010008FB01000820
:1000D000FB010008FB010008FB010008FB01000810
:1000E000AF020008FB010008FB010008FB0100084B
:1000F00065150008FB010008FB010008FB01000872
:10010000FB010008FB010008FB010008FB010008DF
:10011000FB010008FB010008FB010008FB010008CF
:10012000FB010008FB010008FB010008FB010008BF
:10013000DFF810D000F08AF80048004735190008B1
:10014000AFF30080C8180020224B19680868B0E897
:10015000F00F80F30988BFF36F8F4FF0000080F33A
:1001600011884EF00D0E7047000000000648006830
:10017000006880F3088862B661B6BFF34F8FBFF3A3
:100180006F8F00DF00BF00BF08ED00E0EFF30980D4
:10019000BFF36F8F0F4B1A6820E9F00F106008B59E
:1001A0004FF0500080F31188BFF34F8FBFF36F8F74
:1001B00001F074FF4FF0000080F31188BDE80840A3
:1001C00019680868B0E8F00F80F30988BFF36F8FF3
:1001D000704700BF40000020EFF30580704700002B
:1001E0000648804706480047FEE7FEE7FEE7FEE7D1
:1001F000FEE7FEE7FEE7FEE7FEE7FEE76315000821
:100200003101000840EA01039B0703D009E008C957
:10021000121F08C0042AFAD203E011F8013B00F8CB
:10022000013B521EF9D27047D2B201E000F8012B17
:10023000491EFBD270470022F6E710B513460A4666
:1002400004461946FFF7F0FF204610BD064C074D47
:1002500006E0E06840F0010394E807009847103496
:10026000AC42F6D3FFF768FF64240008842400083A
:10027000FEE7704770B54FF6FA710A4D081A84B25E
:1002800028684462284600F02DFE4FF6F971286870
:1002900001E0426A94B28C42FBD3BDE87040014851
:1002A00000F088BE04030020012000F01DB94FF4C7
:1002B000006000F019B9082000F016B9102000F015
:1002C00013B972B6FEE70000044B4FF4807108B119
:1002D000012200E00022184600F013BA000C014091
:1002E00018B1054819B1002202E00448FAE70122DA
:1002F000202100F006BA0000000C01400018014067
:10030000044B4FF4007108B1012200E000221846AE
:1003100000F0F7B90018014030B4144B144A01281A
:100320005C78116809D008280DD0102815D1002C50
:1003300013D1002911DB643916E0002C0DD130BC3B
:1003400088B200F049B854B1012C06D0022C04D177
:100350000020587018705860986030BC704741F2A7
:1003600088308142F9DC64311160F6E7A00000209A
:100370001C00002010B51048104C4178C9B101296B
:1003800019D1C26840F2712300215A43406801EB41
:10039000021100EBC00202EB00100A22B0FBF2F0E7
:1003A0000844FF2101F0A0F92079BDE8104001F0D8
:1003B00085B92068F5E710BDA00000201C000020D2
:1003C000044B4FF4806108B1012200E0002218467E
:1003D00000F097B90018014010B50B4C00212170B6
:1003E0006160E06000EB800040001921B0FBF1F09B
:1003F00080B2A0600120FFF7E3FF0120FFF780FF3C
:1004000001202070607010BDA00000202DE9F04197
:1004100006464FF47A7501281DD0304F082E45D07E
:10042000102E2ED0B0F5006F13D12D4C207801285E
:100430000FD16068401C6060A168884209D3002029
:10044000FFF75EFF0020FFF7BBFF002020700220B7
:100450006070BDE8F081062000F0D6F9322428460D
:10046000FFF708FF641E2404240CF8D101211D4865
:1004700000F042F9012802D13046FFF74DFF062077
:1004800028E00A2000F0C0F932242846FFF7F2FEE7
:10049000641E2404240CF8D11021384600F02CF9F5
:1004A00010B93046FFF738FF0A2013E0092000F0AA
:1004B000ABF932242846FFF7DDFE641E2404240C29
:1004C000F8D10821384600F017F910B93046FFF787
:1004D00023FF0920BDE8F04100F0A7B90018014052
:1004E000A000002000080140044910B50A6802423B
:1004F00002D00860FFF78AFF10BD0000140401401D
:100500002DE9F84FDFF8C891002409F1040A0AF137
:10051000040B23460F270BF1040ED1E00125A54063
:1005200006EA0502AA4276D1DFF8A8C14E68A6EB1A
:100530000C0866452BD00DDC032E34D005DC36B319
:10054000012E19D0022E2FD11BE0112E16D0122E03
:100550002AD119E0B8F5881F19D006DCB8F5803F1C
:1005600015D0B8F5801F1FD111E0B8F5001F0ED0CF
:10057000B8F5041F18D10AE0CB6815E0CB681B1D45
:1005800012E0CB6808330FE0CB680C330CE08B68CB
:100590002BB1012B4FF0080303D0456104E0042385
:1005A00002E0056100E00023FF2A01D8064601E0D1
:1005B00000F104064FEA840501D9A5F12005D6F81B
:1005C000008007FA05FC28EA0C0803FA05F548EA5A
:1005D0000508C6F800804D68ED0070D53E4DAE6947
:1005E00046F00106AE61AD6924F0030605F0010591
:1005F00000953A4D06EB050CDCF80850A607360FBF
:1006000007FA06F825EA0805DFF8D480404503D14B
:100610004FF0000825E052E0DFF8C880404502D1E5
:100620004FF001081DE0DFF8C080404502D14FF0D7
:10063000020816E0DFF8B480404502D14FF003080D
:100640000FE0DFF8AC80404502D14FF0040808E02D
:10065000DFF8A080404502D14FF0050801E04FF0DF
:10066000060808FA06F848EA0508CCF808804D683C
:10067000D9F80060ED034D4601D5164300E09643DE
:100680002E604D68DAF80060AD03554601D516437B
:1006900000E096432E604D68DBF80060ED025D4699
:1006A00001D5164300E096432E604D68DEF80060E9
:1006B000AD02754601D5164300E096432E60641CDA
:1006C0000A681646E2407FF429AFBDE8F88F0000C3
:1006D0000004014000001110001002400000014021
:1006E00000080140000C01400010014000140140CE
:1006F00000180140001C01408068084000D0012023
:1007000070470AB1016170470904FBE7014880683E
:1007100070470000300000200248816802781144D0
:100720008160704730000020074810B5016841F033
:1007300010010160032000F0A5F80F2000F006F87A
:1007400000F03EF8002010BD0020024000B5014638
:1007500087B000222C2000F075F82C2000F065F8FE
:100760001348816941F400518161806905A900F451
:1007700000500690684600F02DF900F05BF90D4935
:100780000D4AB0FBF1F10D48491E0260416040F294
:10079000E7320021C0E90321816000F061FB10B164
:1007A000012007B000BD054800F0CEFBF9E70000CE
:1007B0000010024040420F0000340140900300202E
:1007C0000F4808B5816941F001018161816901F03B
:1007D00001010091C16941F08051C161C0690022ED
:1007E00000F0805000900F21901E00F02BF805487B
:1007F000416821F0E06141F00071416008BD0000F6
:10080000001002400000014000280DDB00F01F0234
:10081000012191404009800000F1E020C0F88011E2
:10082000BFF34F8FBFF36F8F7047002809DB00F0D5
:100830001F02012191404009800000F1E020C0F832
:1008400000117047F0B40E4B1B680C46C3F3022333
:10085000C3F10705042D00D90425191D072901D26C
:10086000002300E0DB1E012606FA05F1491E2140A7
:1008700099409E40761E16403143F0BC01F03BB8D3
:100880000CED00E0064900F0070208684FF6FF0390
:10089000184040EA0220034A1043086070470000F5
:1008A0000CED00E00000FA052DE9F0470F460500C9
:1008B00061D0434E306800F00700B84209D230687A
:1008C00020F0070038433060306800F00700B8427D
:1008D00051D128683B4C810712D5400703D5606889
:1008E00040F4E06060602878000703D5606840F459
:1008F000605060606068A96820F0F00008436060A4
:100900002878C00728D06868012810D021680228FC
:1009100010D0890700292EDA616821F00301014314
:100920006160FFF7F3FE804641F288390DE02168EF
:100930008903EFE78901EDE7FFF7E8FEA0EB080187
:10094000494502D90320BDE8F0876068696800F076
:100950000C00B0EB810FEFD1306800F00700B84217
:100960000BD9306820F0070038433060306800F061
:100970000700B84201D00120E5E72878400705D5F7
:100980006068E96820F4E060084360602878000748
:1009900006D56068296920F4605040EAC1006060B3
:1009A00000F058F86168084AC1F30311515CC8406F
:1009B0000649086006480068FFF7C8FE0020C2E745
:1009C0000020024000100240302400083C000020BB
:1009D000340000200F2202600C4A536803F0030326
:1009E0004360536803F0F0038360536803F4E063EB
:1009F000C36052684FF4E06303EAD2020261044824
:100A0000006800F007000860704700000010024016
:100A1000002002400448054900684968044AC1F3BF
:100A20000221515CC84070473C0000200010024089
:100A3000402400080448054900684968044AC1F395
:100A4000C221515CC84070473C00002000100240A9
:100A50004024000812A185B00FC98DE80F0014A032
:100A6000144A006804905168134801F00C03042BE9
:100A700010D0082B0ED1C1F38343C9031DF8030026
:100A80000AD5516804AAC1F34041515C0A4A504357
:100A9000B0FBF1F005B0704708494843FAE70000A1
:100AA00002030405060708090A0B0C0D0E0F1010AF
:100AB000010200000010024000127A0000093D000F
:100AC0002DE9F84F040070D02078C04DC00749D000
:100AD0006868C0F38100012807D06868C0F381000E
:100AE000022809D16868C00306D52868800339D573
:100AF00060680028E7D035E06068B0F5803F0BD033
:100B000010B1B0F5A02F11D0286820F480302860F3
:100B1000286820F4802002E0286840F480302860B3
:100B2000606890B1FFF7F2FD06460AE0286840F4DD
:100B300080202860F0E700BFFFF7E8FD801B6428F5
:100B400073D828688003F7D50CE0FFF7DFFD064671
:100B500005E000BFFFF7DAFD801B6428F0D82868A5
:100B60008003F7D420789A4E80074FF001094FF0A8
:100B7000000839D5686810F00C0F07D06868C0F31A
:100B80008100022809D16868C00306D4286880075C
:100B900014D52069012808D110E02069B0B1C6F849
:100BA0000090FFF7B3FD074605E00AE1FFF7AEFD51
:100BB000C01B0228C4D828688007F7D52868616957
:100BC00020F0F80040EAC10028600DE0C6F800807F
:100BD000FFF79CFD074604E0FFF798FDC01B0228C5
:100BE00023D828688007F7D4207800072CD57948C7
:100BF000A169D9B1C0F80090FFF788FD074604E06D
:100C0000FFF784FDC01B02280FD8686A8007F7D55C
:100C100071484FF4FA510068B0FBF1F0009000BF4A
:100C20000098411E0091FAD20EE080E0C0F80080EA
:100C3000FFF76CFD074604E0FFF768FDC01B0228C4
:100C400075D8686A8007F7D42078400760D5E869CE
:100C50000027C00008D4E86940F08050E861E869E6
:100C6000012700F0805000905C480168C90513D44A
:100C70000168834641F480710160FFF747FD8246B9
:100C800006E000BFFFF742FDA0EB0A0064284ED843
:100C9000DBF80000C005F5D5E06801280AD008B1EE
:100CA000052813D0286A20F001002862286A20F065
:100CB000040002E0286A40F001002862E06841F286
:100CC000883B98B1FFF722FD82460BE0286A40F08E
:100CD00004002862EEE700BFFFF718FDA0EB0A0151
:100CE00059455AD8286A8007F6D50CE0FFF70EFD63
:100CF000824605E0FFF70AFDA0EB0A0159454CD8F2
:100D0000286A8007F6D41FB1E86920F08050E861B6
:100D1000E06988B36968C1F38101022944D00228DF
:100D2000C6F8608004D0FFF7F1FC044638E034E0F8
:100D3000FFF7ECFC074604E0FFF7E8FCC01B0228C5
:100D40002BD828688001F7D4206AB0F5803F05D100
:100D50006868A16820F4003008436860D4E908019D
:100D60000843696821F4741108436860C6F860900C
:100D7000FFF7CCFC044606E025E000BFFFF7C6FC09
:100D8000001B022809D828688001F7D51BE000BFA6
:100D9000FFF7BCFC001B022802D90320BDE8F88F36
:100DA00028688001F4D40EE00128F7D06868226A30
:100DB00000F48031914204D1616A00F470108842DD
:100DC00001D00120EAE70020E8E70000001002401F
:100DD00000004242800442423C000020007000407B
:100DE0007047704770B590F83C20012A2CD0012440
:100DF00080F83C40022280F83D2003685A689D68D4
:100E000022F070060A6832435A60104B02689A4218
:100E10000ED00F4B9A420BD0B2F1804F08D00D4B41
:100E20009A4205D00C4B9A4202D00C4B9A4204D104
:100E3000496825F080031943916080F83D40002106
:100E400080F83C10084670BD022070BD002C0140A7
:100E5000003401400004004000080040000C004045
:100E600010B5040003D094F83D0010B107E0012054
:100E700010BD002084F83C00204600F01FF802203E
:100E800084F83D00211D206800F072FB012084F8E9
:100E9000460084F83E0084F83F0084F8400084F85F
:100EA000410084F8420084F8430084F8440084F848
:100EB000450084F83D00002010BD000008B5006822
:100EC0000649884208D10648C16941F02001C16144
:100ED000C06900F02000009008BD00000014004030
:100EE0000010024090F83D10012901D00120704708
:100EF000022180F83D1000680E4988420ED00E494C
:100F000088420BD0B0F1804F08D00C49884205D000
:100F10000B49884202D00B49884204D1816801F014
:100F20000701062903D0016841F00101016000209A
:100F300070470000002C01400034014000040040D4
:100F400000080040000C004090F83D10012901D03D
:100F500001207047022180F83D100168CA6842F004
:100F60000102CA6000680E4988420ED00D498842CD
:100F70000BD0B0F1804F08D00B49884205D00B4907
:100F8000884202D00A49884204D1816801F00701F1
:100F9000062903D0016841F001010160002070477B
:100FA000002C0140003401400004004000080040D3
:100FB000000C004001680A6A41F211131A4207D17D
:100FC0000A6A9B101A4203D10A6822F001020A60E1
:100FD000012180F83D1000207047704770B504462D
:100FE000006801694FF00005C943890715D4C1683D
:100FF000C943890711D4E91E0161012020772068C7
:1010000080698007204602D0FFF7E7FF04E000F088
:1010100098F8204600F096F8257720680169C943C2
:10102000490717D4C168C943490713D46FF00401B5
:101030000161022020772068806910F4407F2046FB
:1010400002D0FFF7CAFF04E000F07BF8204600F072
:1010500079F8257720680169C943090716D4C16862
:10106000C943090712D46FF00801016104202077F9
:101070002068C0698007204602D0FFF7AEFF04E079
:1010800000F05FF8204600F05DF8257720680169E0
:10109000C943C90617D4C168C943C90613D46FF040
:1010A00010010161082020772068C06910F4407F9A
:1010B000204602D0FFF791FF04E000F042F82046FE
:1010C00000F040F8257720680169C943C90708D1B5
:1010D000C168C943C90704D1891E0161204600F0D7
:1010E00033F820680169C943090609D4C168C943B6
:1010F000090605D46FF0800101612046FFF770FEFC
:1011000020680169C943490609D4C168C943490631
:1011100005D46FF040010161204600F01FF82068FF
:101120000169C94389060BD4C168C943890607D43C
:101130006FF0200101612046BDE87040FFF751BE0D
:1011400070BD70477047000000680349884201D1B4
:10115000FFF7E2BA7047000000340140704770B5F5
:10116000040004D094F83D00002510B106E00120F1
:1011700070BD84F83C50204600F022F8242084F80A
:101180003D002068C16821F40051C160204600F094
:1011900055FB2068016921F4904101612068416993
:1011A00021F02A0141612068C16841F40051C16009
:1011B0002564202084F83D0084F83E00002070BDA6
:1011C00030B585B000240094019402940394006823
:1011D0001449884224D11448816941F480418161D5
:1011E000816901F480410491816941F004018161C8
:1011F00080690E4D00F0040004904FF400700090E0
:10120000022001900320039069462846FFF778F9F1
:101210002815CDE90004694628460294FFF770F9C5
:1012200005B030BD00380140001002400008014008
:10123000FEE7000010B596B01C2211496846FEF783
:10124000E1FF0021684600F0B6FB0E4C0C491C2261
:1012500020601C3107A8FEF7D5FF002107A800F089
:10126000AAFB074960601C2238310EA8FEF7CAFFAE
:1012700000210EA800F09FFBA06016B010BD00007A
:10128000DC230008240000202DE9F04786B000266A
:101290003D480096019602960396816941F040010F
:1012A0008161816901F040010491816941F004018B
:1012B0008161816901F004010491816941F00801B3
:1012C00081618069DFF8C49000F008000490012279
:1012D00047F220014846FFF714FA00224FF4C0619C
:1012E0004846FFF70EFADFF8A8A001222021504659
:1012F000FFF707FA4FF48078002241465046FFF787
:1013000000FA1820009023480124CDE90104694621
:101310004846FFF7F5F802254FF4C46003958DE8C1
:10132000510069464846FFF7EBF81B4F6946CDE987
:1013300000471A480295FFF7E3F8E002CDE90007FD
:10134000694602944846FFF7DBF84FF4E040CDE9E8
:10135000000469464846CDE90245FFF7D1F8202050
:1013600003958DE8510069465046FFF7C9F8CDF85E
:101370000080CDE90145694650460395FFF7C0F866
:1013800006B0BDE8F08700000010024000180140E0
:10139000000C014000002110000011100008014065
:1013A0001CB500240E4800940C49019401604721AB
:1013B000C0E901144FF6FF718461C160FFF750FD71
:1013C00008B1FEF77EFF0094694605480194FFF7D7
:1013D00009FD002801D0FEF774FF1CBD0014004079
:1013E000040300200C4810B50A4901604FF4E131B4
:1013F0004160002181600C22C160C0E9041281615A
:10140000C161FFF7ACFE002803D0BDE81040FEF735
:1014100058BF10BD003801404C030020FEE7FEE736
:101420000120FEF751FFC82000F0B9FA0020FEF7B6
:101430004BFF802000F042F9C82000F0B0FA4020B5
:1014400000F03CF9C82000F0AAFA202000F036F99C
:10145000C82000F0A4FA102000F030F9C82000F0F5
:101460009EFA082000F02AF9C82000F098FA04201B
:1014700000F024F9C82000F092FA022000F01EF9D2
:10148000C82000F08CFA012000F018F9C82000F004
:1014900086FACEE74FF47A7000F081FA40F25234C7
:1014A00001210020FEF71CFF962000F078FA0021B1
:1014B0000846FEF715FF204600F071FAF0E74FF4FA
:1014C000FA7000F06CFA00F0DFF8FEF753FFC82066
:1014D00000F065FAF9E7000010B5502080F311889C
:1014E000BFF34F8FBFF36F8F00F0B2FE18B1044906
:1014F0004FF080500860002080F3118810BD00007C
:1015000004ED00E030B58FB028216846FEF793FE69
:1015100014210AA8FEF78FFE01210804CDE900106E
:101520000024029402250491CDE907504FF4E01005
:1015300009906846FFF7C4FA08B172B6FEE70F20BB
:10154000CDE90A054FF48060CDE90C4002210AA8DC
:101550000E94FFF7A9F9002801D072B6FEE70FB08C
:1015600030BD70470148FFF739BD000090030020EF
:10157000F0B502681C4B1D4D1D4E1E4F1E4C4FF00A
:10158000804C984209D0A04207D0604505D0A842BF
:1015900003D0B04201D0B84204D122F0700E4A68A4
:1015A00042EA0E02984209D0A04207D0604505D019
:1015B000A84203D0B04201D0B84203D122F4407512
:1015C000CA682A434D6922F080022A4302608A6871
:1015D000C2620A688262984201D0A04201D10969C0
:1015E000016301214161F0BD002C01400004004075
:1015F00000080040000C004000340140092817D2C8
:10160000DFE800F0160507090B0D0F111300882005
:101610000CE089200AE08A2008E08B2006E08C207C
:1016200004E08D2002E08E2000E08F2000F010B852
:1016300070470000054B4FF40051012803D00022F1
:101640001846FFF75EB80122FAE7000000180140D3
:1016500010B50446002000F0B9F8204600F0D9F893
:10166000BDE81040012000F0B1B80000054B4FF478
:101670008041012803D000221846FFF742B801221A
:10168000FAE700000018014010B50620FFF7B6FF8A
:101690004020FFF7DDFF002000F098F8C02000F0A8
:1016A000B8F80024002000F0B4F8641CE4B2102C58
:1016B000F8D3BDE81040012000F088B870B50024D0
:1016C0000546012606FA04F206EB44002A42C0B29F
:1016D00001D0012100E0002100F086F8641CE4B292
:1016E000082CEFD370BD00007CB50D462D490A22B1
:1016F00090FBF1F18DF800102B496E4690FBF1F153
:1017000091FBF2F302FB13118DF80110274990FBB6
:10171000F1F191FBF2F302FB13118DF8021042F28A
:10172000107190FBF1F191FBF2F302FB13118DF8B4
:1017300003104FF47A7190FBF1F191FBF2F302FB8D
:1017400013118DF80410642190FBF1F191FBF2F379
:1017500002FB13118DF8051090FBF2F191FBF2F3EF
:1017600002FB13118DF8061090FBF2F102FB110041
:101770008DF8070001243019002210F8011C2046C2
:1017800000F016F8641CE4B2082CF4D9681E07288F
:1017900006D87019012210F8011C284600F008F83C
:1017A0007CBD00008096980040420F00A08601009A
:1017B0004000801EC0B21AB1034A515C00F014B858
:1017C000014A0A3AF9E7000011000020054B4FF4E6
:1017D0008051012803D000221846FEF792BF012253
:1017E000FAE700000018014070B504460D46442099
:1017F000FFF72EFF0020FFF7E9FF44F0C00000F0E4
:1018000008F8284600F005F8BDE870400120FFF711
:10181000DDBF70B5044600250020FFF70BFFE00791
:1018200000D00120FFF722FF64080120FFF702FF2C
:101830006D1CEDB2082DEFD370BD000070B50446ED
:1018400000680169E26821F4405111430161216996
:10185000A0680843616908432168CA6841F20C63C3
:101860009A430243CA6020684169A26921F4407129
:10187000114341611E492068884202D1FFF7DAF81E
:1018800001E0FFF7C7F800EBC00101EB0012606850
:1018900064218000B2FBF0F3B3FBF1F36FF01806A4
:1018A0007343B2FBF0F5B2FBF0F605EB8305322390
:1018B00003EB0515B5FBF1F5B6FBF1F605F0F00508
:1018C00005EB0615B2FBF0F6B2FBF0F0B0FBF1F061
:1018D0006FF01802504306EB800003EB0010B0FBE2
:1018E000F1F0216800F00F002844886070BD00000E
:1018F00000380140FEE70907090E002804DB00F16B
:10190000E02080F80014704700F00F0000F1E020A4
:1019100080F8141D704702E008C8121F08C1002A91
:10192000FAD170477047002001E001C1121F002A60
:10193000FBD17047FEF7F8FEFFF7E4FDFFF7A4FCCC
:10194000FFF750FDFFF72CFD002205210620FEF7D2
:1019500079FF0620FEF769FF002205210920FEF726
:1019600071FF0920FEF761FF002205210A20FEF722
:1019700069FF0A20FEF759FF002205212820FEF703
:1019800061FF2820FEF751FFFFF754FC00F00EF82E
:10199000FEE701460020842900D0C81C704710B51E
:1019A00000B9012000F016FB002010BD10B500F0BA
:1019B00037FB002010BD7FB50D4604464169B0F9E4
:1019C000080081B1A16971B1FFF7E3FFD4E9051205
:1019D0008DE80700D4E900102B46226900F00DFCC9
:1019E000039004B070BDFFF7D4FF03A9CDE9000157
:1019F000208A2B4682B2D4E9001000F0D1FB0128E6
:101A000001D00020EDE70398EBE700002DE9F0415D
:101A1000184C0F46054666692068001D00F016FA4E
:101A200038B9206890F82C1001208840A1698143C2
:101A3000A161681C07D137B12168BDE8F0410E48AB
:101A4000091D00F047BA20683544B5424560216859
:101A500005D2A068BDE8F041091D00F023BA606816
:101A6000091D00F01FFA206B854200D22563BDE8F6
:101A7000F081000040000020B40400202DE9F04176
:101A8000054600F033FA2E4C2069401C2061206886
:101A90002C4F10B1E06940B32DE02560206901288A
:101AA00029D1002606EB860007EB800000F0ECF958
:101AB000761C072EF6D323488C3000F0E5F9214838
:101AC000A03000F0E1F91F48B43000F0DDF91D4806
:101AD000C83000F0D9F91B48DC3000F0D5F91948BE
:101AE0008C3060601430A06005E02068E96AC06A4C
:101AF000884200D82560E06A401CE062E96A012063
:101B0000A26988401043A06101EB810007EB8000CF
:101B1000291D00F0DFF900F009FAE06900280CD077
:101B20002068E96AC06A884207D207494FF08050AE
:101B30000860BFF34F8FBFF36F8FBDE8F0810000E7
:101B400040000020D803002004ED00E010B504465A
:101B500090F8510058B101280CD002280FD0502025
:101B600080F31188BFF34F8FBFF36F8FFEE7206BB9
:101B700000F0F0F92046BDE8104000F0EBB910BDD0
:101B800010484FF48051420706D0C01D0D4920F087
:101B90000700411AC1F580510B4A00230144C2E9F4
:101BA00000030839103A21F0070111604B600B6007
:101BB0000B1AC0E9001393604FF000405360D060EF
:101BC00070470000C80400208C000020144E154C03
:101BD000A6F1C8074FF08058DFF84C9012E000BF24
:101BE00000F084F9F068C568281D00F02FF920691D
:101BF000401E2061E068401EE06000F097F9284632
:101C0000FFF7A4FFE0680028EAD138680128F9D975
:101C1000C9F80080BFF34F8FBFF36F8FF2E700006A
:101C2000A00400204000002004ED00E02DE9F04772
:101C30009A46DDE9098481466FF00303206B03EBCC
:101C400082021044089D20F00706700707D050203C
:101C500080F31188BFF34F8FBFF36F8FFEE7231818
:101C60000A5C83F834200A5C12B1401C1028F6D3B9
:101C7000002784F84370072D00D30625E562C4E9E8
:101C80001157201D00F00BF904F1180000F007F9BE
:101C90002461C5F107006462A061E76484F85070B4
:101CA00052464946304600F0BFF82060B8F1000FB8
:101CB00001D0C8F80040BDE8F087000030B51149F8
:101CC00000E011460A688242FBD34B685C188442EC
:101CD00003D1406818444860084643681C18944281
:101CE00009D1084C103C2468A24209D052681A4419
:101CF00042600A6812680260814200D0086030BD0C
:101D00000460F9E78C00002006484168096829B1A1
:101D10004168C968C9684968016370474FF0FF317D
:101D2000FAE700004000002008484068401C4FF0DF
:101D3000500080F3118804D0BFF34F8FBFF36F8F33
:101D4000FEE7BFF34F8FBFF36F8FFEE794000020D5
:101D50002DE9F0410546002700F098F9314E306832
:101D600008B9FFF70DFFF06805424BD1C5B3083540
:101D700068070ED005F00700C0F1080005446807A9
:101D800007D0502080F31188BFF34F8FBFF36F8FC0
:101D9000FEE72DB37068854234D8224810300146E2
:101DA0000C6801E020460C466168A94202D2216815
:101DB0000029F7D131688C4224D00768216801607E
:101DC00060680837411B10290FD96019420708D0F5
:101DD000502080F31188BFF34F8FBFF36F8FFEE762
:101DE00010E041606560FFF769FF61687068401A44
:101DF0007060B268904200D2B060F0680143002089
:101E0000C4E9000100F088FA780707D0502080F379
:101E10001188BFF34F8FBFF36F8FFEE73846BDE8E1
:101E2000F08100007C00002010B5031F4FF080748B
:101E30001C601B1F21F001011960191F024B0B6070
:101E4000143940380A6010BD291D0008D0E901325C
:101E500001699A60D0E901235A604A68824201D13F
:101E600082684A60002202610868401E08600868B3
:101E700070470000034B036003F1540008608020AA
:101E800010607047B000002000F108014FF0FF32F1
:101E9000C0E90112C16001610021016070470021A9
:101EA0000161704730B50B685A1C02D000F108027E
:101EB00002E0026904E02246546825689D42FAD98E
:101EC00053684B6099608A60516008610168491CE1
:101ED000016030BD42684A6093688B6093685960C6
:101EE000916008610168491C01607047502080F3CF
:101EF0001188BFF34F8FBFF36F8F0A494868401CAA
:101F0000486001280CD10848006810F0FF0F07D086
:101F1000502080F31188BFF34F8FBFF36F8FFEE720
:101F2000704700009400002004ED00E00849486874
:101F300028B1401E486001D180F3118870475020BD
:101F400080F31188BFF34F8FBFF36F8FFEE7000060
:101F50009400002070B5002827D0144DA0F108048B
:101F60006168E868014207D1502080F31188BFF30F
:101F70004F8FBFF36F8FFEE722683AB1502080F396
:101F80001188BFF34F8FBFF36F8FFEE7814361600E
:101F900000F07CF860686968084468602046FFF7D4
:101FA0008DFEBDE8704000F0B7B970BD7C00002028
:101FB0004FF0E02000210161816105494FF47A7200
:101FC0000968B1FBF2F1491E4161072101617047C7
:101FD0003C00002010B5020014D00F48806B38B1CF
:101FE000502080F31188BFF34F8FBFF36F8FFEE750
:101FF00000F04CF800211046FFF708FD00F08CF9C6
:10200000002807D105494FF080500860BFF34F8F7B
:10201000BFF36F8F10BD00004000002004ED00E012
:1020200010B586B00024039405AA04A903A804945B
:10203000FFF720FFDDE903010094CDE90110002343
:102040000EA11048059A00F0D8F80F4900284863FF
:1020500011D0502080F31188BFF34F8FBFF36F8FE3
:102060004FF0FF3008630120C8614C6106B0BDE845
:10207000104000F041B806B010BD000049444C4586
:1020800000000000CD1B0008400000200248816BCA
:10209000491C816370470000400000201448816B98
:1020A00011B1012141627047002141628169B1FA99
:1020B00081F1C1F11F0101EB81020E4951F822307B
:1020C0006BB101EB820101F108034A6852684A6072
:1020D0009A4201D152684A60D1680160704750202D
:1020E00080F31188BFF34F8FBFF36F8FFEE70000BF
:1020F00040000020D80300201CB526490878019034
:10210000FF20087008788DF800009DF800009DF809
:10211000002000F0F000904207D0502080F311889A
:10212000BFF34F8FBFF36F8FFEE79DF800001A4B90
:1021300000F0500018700720986005E09DF800201E
:1021400052008DF80020401E9DF800201206F5D4A4
:102150009860032807D0502080F31188BFF34F8F79
:10216000BFF36F8FFEE74FF44070986001980870DE
:102170000A48016841F470010160016841F0704152
:102180000160FFF715FF00205860FDF7EFFF00200A
:102190001CBD000000E400E09400002020ED00E001
:1021A0002DE9FF5F8346DDE90E87994616468A468C
:1021B0009000FFF7CDFD05001CD05420FFF7C8FDAF
:1021C000040014D00020256384F85100CDE90240BA
:1021D000CDE900874B46324651465846FFF726FD6B
:1021E0002046FFF74BFC012004B0BDE8F09F2846D5
:1021F000FFF7B0FE4FF0FF30F6E7F0B585B0DDE950
:102200000B640A9DA6B1DCB1542700972663022611
:1022100084F85160002604AFCDE90246CDE90057AD
:10222000FFF704FD2046FFF729FC049805B0F0BD38
:10223000502080F31188BFF34F8FBFF36F8FFEE7FD
:10224000502080F31188BFF34F8FBFF36F8FFEE7ED
:102250002DE9F0412E4C0027A06B40B1206A401CB4
:102260002062606A00B101273846BDE8F0816669E6
:10227000761C666113D16068006838B1502080F325
:102280001188BFF34F8FBFF36F8FFEE76068A168BF
:102290006160A060A06A401CA062FFF735FD206B62
:1022A000DFF87080864209D36068006880B160689A
:1022B000C068C568686886420DD220632068C06A1D
:1022C00000EB800158F821000128CAD90127C8E78E
:1022D0004FF0FF30F1E7281DFFF7B8FDA86A18B1ED
:1022E00005F11800FFF7B2FDE86A0121A2698140FB
:1022F0001143A16100EB800108EB8100291DFFF76C
:10230000E9FDE86A2168C96A8842CDD30127CBE795
:1023100040000020D80300202DE9F0472C4D002478
:102320002746A86B38B1FFF7E1FDA86B401EA863F4
:10233000A86B40B146E0502080F31188BFF34F8F67
:10234000BFF36F8FFEE72969224E0120D1B3A6F1BA
:10235000B40980463068E8B1F068C46804F1180038
:10236000FFF774FD201DFFF771FDE06AAA6908FA06
:1023700000F11143A96100EB800109EB8100211DEF
:10238000FFF7A8FDE06A2968C96A8842E2D3C5F868
:102390002480DFE70CB1FFF7B7FC2C6A44B1464656
:1023A000FFF756FF00B16E62641EF9D1002028626B
:1023B000686A38B10849012738070860BFF34F8FB2
:1023C000BFF36F8FFFF7B2FD3846BDE8F08700001E
:1023D000400000208C04002004ED00E05824000898
:1023E0002114000800000000000000008000000030
:1023F00000000000000000005024000895140008B0
:10240000020000000000000080000000000000004A
:102410000000000048240008BF140008000000006D
:10242000000000008000000000000000000000002C
:102430000000000000000000010203040607080974
:102440000000000001020304544D3136333800000F
:10245000426C696E6B00000064656661756C745453
:1024600061736B008424000800000020A0000000BD
:102470001619000824250008A000002028180000D4
:102480002619000800777C395E79713F065B4F663C
:102490006D7D077F6FBF86DBCFE6EDFD87FFEF0029
:1024A000000000000000000000000000000000002C
:1024B000000000000100000010000000000000000B
:1024C0000024F400000000000000000000000000F4
:1024D00000000000000000000000000000000000FC
:1024E00000000000000000000000000000000000EC
:1024F00000000000000000000000000000000000DC
:1025000000000000000000000000000000000000CB
:10251000000000000000000000000000AAAAAAAA13
:0425200000000000B7
:0400000508000131BD
:00000001FF
