:020000040800F2
:10000000B8060020CD010008CF0B0008AF0B000898
:10001000CD0B0008D3020008D10C0008000000003E
:10002000000000000000000000000000D30B0008EA
:10003000D502000800000000D10B0008D50B000815
:10004000E7010008E7010008E7010008E7010008F0
:10005000E7010008E7010008E7010008E7010008E0
:10006000E7010008E7010008E7010008E7010008D0
:10007000E7010008E7010008E7010008E7010008C0
:10008000E7010008E7010008E7010008E7010008B0
:10009000E7010008E7010008E7010008E7010008A0
:1000A000E7010008E7010008E7010008E701000890
:1000B000E7010008E7010008E7010008E701000880
:1000C000E7010008E7010008E7010008E701000870
:1000D000E7010008E7010008E7010008E701000860
:1000E000E7010008E7010008E7010008E701000850
:1000F000390C0008E7010008E7010008E7010008E3
:10010000E7010008E7010008E7010008E70100082F
:10011000E7010008E7010008E7010008E70100081F
:10012000E7010008E7010008E7010008E70100080F
:1001300000F002F800F03AF80AA090E8000C8244BF
:100140008344AAF10107DA4501D100F02FF8AFF29C
:10015000090EBAE80F0013F0010F18BFFB1A43F0A5
:1001600001031847B40B0000D40B0000103A24BF61
:1001700078C878C1FAD8520724BF30C830C144BF0C
:1001800004680C607047000000230024002500264E
:10019000103A28BF78C1FBD8520728BF30C148BFEA
:1001A0000B6070471FB51FBD10B510BD00F058F8AB
:1001B0001146FFF7F7FF00F09CFD00F076F803B45E
:1001C000FFF7F2FF03BC00F07DF80000094880470C
:1001D00009480047FEE7FEE7FEE7FEE7FEE7FEE729
:1001E000FEE7FEE7FEE7FEE704480549054A064B41
:1001F00070470000350C000831010008B8000020ED
:10020000B8060020B8020020B80200204FF000021B
:1002100000B5134694469646203922BFA0E80C50FC
:10022000A0E80C50B1F12001BFF4F7AF090728BFD7
:10023000A0E80C5048BF0CC05DF804EB890028BF53
:1002400040F8042B08BF704748BF20F8022B11F07C
:10025000804F18BF00F8012B7047704770477047F8
:10026000754600F02BF8AE4605006946534620F06F
:100270000700854618B020B5FFF7B6FFBDE820405F
:100280004FF000064FF000074FF000084FF0000B52
:1002900021F00701AC46ACE8C009ACE8C009ACE805
:1002A000C009ACE8C0098D46704710B50446AFF3ED
:1002B00000802046BDE81040FFF781BF004870472E
:1002C0005800002001491820ABBEFEE726000200BE
:1002D0007047FEE7704700000148806870470000E3
:1002E0000000002002488168027811448160704754
:1002F00000000020074810B5016841F010010160BE
:10030000032000F08FF80F2000F006F800F03EF810
:10031000002010BD0020024000B5014687B0002239
:100320002C2000F05FF82C2000F04EF81348816973
:1003300041F400518161806905A900F400500690E4
:10034000684600F017F900F035F90D490D4AB0FB89
:10035000F1F10D48491E0260416040F2E732002190
:10036000C0E90321816000F0FDFA10B1012007B05F
:1003700000BD054800F024FBF9E700000010024032
:1003800040420F0000340140100000200C4808B526
:10039000816941F001018161816901F001010091F0
:1003A000C16941F08051C161C06900F08050009086
:1003B0000448416821F0E06141F00071416008BDEE
:1003C0000010024000000140002809DB00F01F027D
:1003D000012191404009800000F1E020C0F80011A7
:1003E00070470000F0B40E4B1B680C46C3F30223A9
:1003F000C3F10705042D00D90425191D072901D2D1
:10040000002300E0DB1E012606FA05F1491E21400B
:1004100099409E40761E16403143F0BC00F059BC16
:100420000CED00E0064900F0070208684FF6FF03F4
:10043000184040EA0220034A104308607047000059
:100440000CED00E00000FA052DE9F0470F4605002D
:1004500061D0434E306800F00700B84209D23068DE
:1004600020F0070038433060306800F00700B842E1
:1004700051D128683B4C810712D5400703D56068ED
:1004800040F4E06060602878000703D5606840F4BD
:10049000605060606068A96820F0F0000843606008
:1004A0002878C00728D06868012810D02168022861
:1004B00010D0890700292EDA616821F00301014379
:1004C0006160FFF709FF804641F288390DE021683D
:1004D0008903EFE78901EDE7FFF7FEFEA0EB0801D6
:1004E000494502D90320BDE8F0876068696800F0DB
:1004F0000C00B0EB810FEFD1306800F00700B8427C
:100500000BD9306820F0070038433060306800F0C5
:100510000700B84201D00120E5E72878400705D55B
:100520006068E96820F4E0600843606028780007AC
:1005300006D56068296920F4605040EAC100606017
:1005400000F048F86168084AC1F30311515CC840E3
:100550000649086006480068FFF7DEFE0020C2E793
:100560000020024000100240000D00080C00002096
:10057000040000200F2202600C4A536803F00303BA
:100580004360536803F0F0038360536803F4E0634F
:10059000C36052684FF4E06303EAD2020261044888
:1005A000006800F00700086070470000001002407B
:1005B000002002400448054900684968044AC1F324
:1005C000C221515CC84070470C000020001002405E
:1005D000100D000812A185B00FC98DE80F0014A0FE
:1005E000144A006804905168134801F00C03042B6E
:1005F00010D0082B0ED1C1F38343C9031DF80300AB
:100600000AD5516804AAC1F34041515C0A4A5043DB
:10061000B0FBF1F005B0704708494843FAE7000025
:1006200002030405060708090A0B0C0D0E0F101033
:10063000010200000010024000127A0000093D0093
:100640002DE9F84F040070D02078C04DC00749D084
:100650006868C0F38100012807D06868C0F3810092
:10066000022809D16868C00306D52868800339D5F7
:1006700060680028E7D035E06068B0F5803F0BD0B7
:1006800010B1B0F5A02F11D0286820F48030286078
:10069000286820F4802002E0286840F48030286038
:1006A000606890B1FFF718FE06460AE0286840F43B
:1006B00080202860F0E700BFFFF70EFE801B642853
:1006C00073D828688003F7D50CE0FFF705FE0646CF
:1006D00005E000BFFFF700FE801B6428F0D8286803
:1006E0008003F7D420789A4E80074FF001094FF02D
:1006F000000839D5686810F00C0F07D06868C0F39F
:100700008100022809D16868C00306D428688007E0
:1007100014D52069012808D110E02069B0B1C6F8CD
:100720000090FFF7D9FD074605E00AE1FFF7D4FD89
:10073000C01B0228C4D828688007F7D528686169DB
:1007400020F0F80040EAC10028600DE0C6F8008003
:10075000FFF7C2FD074604E0FFF7BEFDC01B0228FD
:1007600023D828688007F7D4207800072CD579484B
:10077000A169D9B1C0F80090FFF7AEFD074604E0CB
:10078000FFF7AAFDC01B02280FD8686A8007F7D5BB
:1007900071484FF4FA510068B0FBF1F0009000BFCF
:1007A0000098411E0091FAD20EE080E0C0F800806F
:1007B000FFF792FD074604E0FFF78EFDC01B0228FD
:1007C00075D8686A8007F7D42078400760D5E86953
:1007D0000027C00008D4E86940F08050E861E8696B
:1007E000012700F0805000905C480168C90513D4CF
:1007F0000168834641F480710160FFF76DFD824618
:1008000006E000BFFFF768FDA0EB0A0064284ED8A1
:10081000DBF80000C005F5D5E06801280AD008B172
:10082000052813D0286A20F001002862286A20F0E9
:10083000040002E0286A40F001002862E06841F20A
:10084000883B98B1FFF748FD82460BE0286A40F0EC
:1008500004002862EEE700BFFFF73EFDA0EB0A01AF
:1008600059455AD8286A8007F6D50CE0FFF734FDC1
:10087000824605E0FFF730FDA0EB0A0159454CD850
:10088000286A8007F6D41FB1E86920F08050E8613B
:10089000E06988B36968C1F38101022944D0022864
:1008A000C6F8608004D0FFF717FD044638E034E056
:1008B000FFF712FD074604E0FFF70EFDC01B0228FC
:1008C0002BD828688001F7D4206AB0F5803F05D185
:1008D0006868A16820F4003008436860D4E9080122
:1008E0000843696821F4741108436860C6F8609091
:1008F000FFF7F2FC044606E025E000BFFFF7ECFC42
:10090000001B022809D828688001F7D51BE000BF2A
:10091000FFF7E2FC001B022802D90320BDE8F88F94
:1009200028688001F4D40EE00128F7D06868226AB4
:1009300000F48031914204D1616A00F47010884261
:1009400001D00120EAE70020E8E7000000100240A3
:1009500000004242800442420C000020007000402F
:100960007047704710B5040003D094F83D0010B1F3
:1009700007E0012010BD002084F83C00204600F074
:100980001EF8022084F83D00211D206800F05AF96D
:10099000012084F8460084F83E0084F83F0084F883
:1009A000400084F8410084F8420084F8430084F851
:1009B000440084F8450084F83D00002010BD7047D5
:1009C00090F83D10012901D001207047022180F8E4
:1009D0003D100168CA6842F00102CA6000680E4911
:1009E00088420ED00D4988420BD0B0F1804F08D01C
:1009F0000B49884205D00B49884202D00A498842F7
:100A000004D1816801F00701062903D0016841F093
:100A10000101016000207047002C014000340140BA
:100A20000004004000080040000C0040704770B512
:100A30000446006801694FF00005C943890715D4D1
:100A4000C168C943890711D4E91E016101202077DB
:100A5000206880698007204602D0FFF7E7FF04E0A6
:100A600000F098F8204600F096F825772068016994
:100A7000C943490717D4C168C943490713D46FF064
:100A800004010161022020772068806910F4407F12
:100A9000204602D0FFF7CAFF04E000F07BF82046B2
:100AA00000F079F8257720680169C943090716D451
:100AB000C168C943090712D46FF00801016104201D
:100AC00020772068C0698007204602D0FFF7AEFF7C
:100AD00004E000F05FF8204600F05DF8257720681C
:100AE0000169C943C90617D4C168C943C90613D4EB
:100AF0006FF010010161082020772068C06910F4B0
:100B0000407F204602D0FFF791FF04E000F042F85A
:100B1000204600F040F8257720680169C943C907DD
:100B200008D1C168C943C90704D1891E01612046A3
:100B300000F032F820680169C943090609D4C16888
:100B4000C943090605D46FF0800101612046FFF713
:100B500007FF20680169C943490609D4C168C94330
:100B6000490605D46FF040010161204600F01EF8EF
:100B700020680169C94389060BD4C168C943890645
:100B800007D46FF0200101612046BDE87040FFF7F7
:100B9000E8BE70BD7047704700680349884201D1C4
:100BA000FFF7A0BB70470000003401407047FEE72C
:100BB000054808B5816941F004018161806900F050
:100BC0000400009008BD000000100240FEE7FEE7B0
:100BD00070477047704730B58FB028216846FFF7DF
:100BE00015FB14210AA8FFF711FB01210804CDE928
:100BF00000100024029402250491CDE907504FF41F
:100C0000E01009906846FFF71BFD08B172B6FEE7D9
:100C10000F20CDE90A054FF48060CDE90C40022198
:100C20000AA80E94FFF710FC002801D072B6FEE768
:100C30000FB030BD704700000148FFF7F8BE00005C
:100C400010000020F0B502681C4B1D4D1D4E1E4FBC
:100C50001E4C4FF0804C984209D0A04207D060450E
:100C600005D0A84203D0B04201D0B84204D122F04E
:100C7000700E4A6842EA0E02984209D0A04207D09C
:100C8000604505D0A84203D0B04201D0B84203D19C
:100C900022F44075CA682A434D6922F080022A4333
:100CA00002608A68C2620A688262984201D0A042E9
:100CB00001D10969016301214161F0BD002C0140AE
:100CC0000004004000080040000C004000340140D7
:100CD000FEE70907090E002804DB00F1E02080F898
:100CE0000014704700F00F0000F1E02080F8141DA0
:100CF0007047FFF7FFFAFFF76EFFFFF759FFFEE7B8
:100D000000000000000000000102030406070809BB
:100D10000000000001020304380D0008000000205C
:100D2000100000006C010008480D000810000020B1
:100D3000A806000088010008010000001000000063
:080D4000000000000024F40093
:0400000508000131BD
:00000001FF
